{
  "address": "0xfe125922fd4Ebc66A861ee7234b91F01c430ab7F",
  "abi": [
    {
      "inputs": [
        {
          "internalType": "address",
          "name": "priceFeedAddress",
          "type": "address"
        },
        {
          "internalType": "string",
          "name": "lowSvg",
          "type": "string"
        },
        {
          "internalType": "string",
          "name": "highSvg",
          "type": "string"
        }
      ],
      "stateMutability": "nonpayable",
      "type": "constructor"
    },
    {
      "inputs": [],
      "name": "ERC721Metadata__URI_QueryFor_NonExistentToken",
      "type": "error"
    },
    {
      "anonymous": false,
      "inputs": [
        {
          "indexed": true,
          "internalType": "address",
          "name": "owner",
          "type": "address"
        },
        {
          "indexed": true,
          "internalType": "address",
          "name": "approved",
          "type": "address"
        },
        {
          "indexed": true,
          "internalType": "uint256",
          "name": "tokenId",
          "type": "uint256"
        }
      ],
      "name": "Approval",
      "type": "event"
    },
    {
      "anonymous": false,
      "inputs": [
        {
          "indexed": true,
          "internalType": "address",
          "name": "owner",
          "type": "address"
        },
        {
          "indexed": true,
          "internalType": "address",
          "name": "operator",
          "type": "address"
        },
        {
          "indexed": false,
          "internalType": "bool",
          "name": "approved",
          "type": "bool"
        }
      ],
      "name": "ApprovalForAll",
      "type": "event"
    },
    {
      "anonymous": false,
      "inputs": [
        {
          "indexed": true,
          "internalType": "uint256",
          "name": "tokenId",
          "type": "uint256"
        },
        {
          "indexed": false,
          "internalType": "int256",
          "name": "highValue",
          "type": "int256"
        }
      ],
      "name": "CreatedNFT",
      "type": "event"
    },
    {
      "anonymous": false,
      "inputs": [
        {
          "indexed": true,
          "internalType": "address",
          "name": "previousOwner",
          "type": "address"
        },
        {
          "indexed": true,
          "internalType": "address",
          "name": "newOwner",
          "type": "address"
        }
      ],
      "name": "OwnershipTransferred",
      "type": "event"
    },
    {
      "anonymous": false,
      "inputs": [
        {
          "indexed": true,
          "internalType": "address",
          "name": "from",
          "type": "address"
        },
        {
          "indexed": true,
          "internalType": "address",
          "name": "to",
          "type": "address"
        },
        {
          "indexed": true,
          "internalType": "uint256",
          "name": "tokenId",
          "type": "uint256"
        }
      ],
      "name": "Transfer",
      "type": "event"
    },
    {
      "inputs": [
        {
          "internalType": "address",
          "name": "to",
          "type": "address"
        },
        {
          "internalType": "uint256",
          "name": "tokenId",
          "type": "uint256"
        }
      ],
      "name": "approve",
      "outputs": [],
      "stateMutability": "nonpayable",
      "type": "function"
    },
    {
      "inputs": [
        {
          "internalType": "address",
          "name": "owner",
          "type": "address"
        }
      ],
      "name": "balanceOf",
      "outputs": [
        {
          "internalType": "uint256",
          "name": "",
          "type": "uint256"
        }
      ],
      "stateMutability": "view",
      "type": "function"
    },
    {
      "inputs": [
        {
          "internalType": "uint256",
          "name": "tokenId",
          "type": "uint256"
        }
      ],
      "name": "getApproved",
      "outputs": [
        {
          "internalType": "address",
          "name": "",
          "type": "address"
        }
      ],
      "stateMutability": "view",
      "type": "function"
    },
    {
      "inputs": [],
      "name": "getHighSVG",
      "outputs": [
        {
          "internalType": "string",
          "name": "",
          "type": "string"
        }
      ],
      "stateMutability": "view",
      "type": "function"
    },
    {
      "inputs": [],
      "name": "getLowSVG",
      "outputs": [
        {
          "internalType": "string",
          "name": "",
          "type": "string"
        }
      ],
      "stateMutability": "view",
      "type": "function"
    },
    {
      "inputs": [],
      "name": "getPriceFeed",
      "outputs": [
        {
          "internalType": "contract AggregatorV3Interface",
          "name": "",
          "type": "address"
        }
      ],
      "stateMutability": "view",
      "type": "function"
    },
    {
      "inputs": [],
      "name": "getTokenCounter",
      "outputs": [
        {
          "internalType": "uint256",
          "name": "",
          "type": "uint256"
        }
      ],
      "stateMutability": "view",
      "type": "function"
    },
    {
      "inputs": [
        {
          "internalType": "address",
          "name": "owner",
          "type": "address"
        },
        {
          "internalType": "address",
          "name": "operator",
          "type": "address"
        }
      ],
      "name": "isApprovedForAll",
      "outputs": [
        {
          "internalType": "bool",
          "name": "",
          "type": "bool"
        }
      ],
      "stateMutability": "view",
      "type": "function"
    },
    {
      "inputs": [
        {
          "internalType": "int256",
          "name": "highValue",
          "type": "int256"
        }
      ],
      "name": "mintNft",
      "outputs": [],
      "stateMutability": "nonpayable",
      "type": "function"
    },
    {
      "inputs": [],
      "name": "name",
      "outputs": [
        {
          "internalType": "string",
          "name": "",
          "type": "string"
        }
      ],
      "stateMutability": "view",
      "type": "function"
    },
    {
      "inputs": [],
      "name": "owner",
      "outputs": [
        {
          "internalType": "address",
          "name": "",
          "type": "address"
        }
      ],
      "stateMutability": "view",
      "type": "function"
    },
    {
      "inputs": [
        {
          "internalType": "uint256",
          "name": "tokenId",
          "type": "uint256"
        }
      ],
      "name": "ownerOf",
      "outputs": [
        {
          "internalType": "address",
          "name": "",
          "type": "address"
        }
      ],
      "stateMutability": "view",
      "type": "function"
    },
    {
      "inputs": [],
      "name": "renounceOwnership",
      "outputs": [],
      "stateMutability": "nonpayable",
      "type": "function"
    },
    {
      "inputs": [
        {
          "internalType": "address",
          "name": "from",
          "type": "address"
        },
        {
          "internalType": "address",
          "name": "to",
          "type": "address"
        },
        {
          "internalType": "uint256",
          "name": "tokenId",
          "type": "uint256"
        }
      ],
      "name": "safeTransferFrom",
      "outputs": [],
      "stateMutability": "nonpayable",
      "type": "function"
    },
    {
      "inputs": [
        {
          "internalType": "address",
          "name": "from",
          "type": "address"
        },
        {
          "internalType": "address",
          "name": "to",
          "type": "address"
        },
        {
          "internalType": "uint256",
          "name": "tokenId",
          "type": "uint256"
        },
        {
          "internalType": "bytes",
          "name": "data",
          "type": "bytes"
        }
      ],
      "name": "safeTransferFrom",
      "outputs": [],
      "stateMutability": "nonpayable",
      "type": "function"
    },
    {
      "inputs": [
        {
          "internalType": "address",
          "name": "operator",
          "type": "address"
        },
        {
          "internalType": "bool",
          "name": "approved",
          "type": "bool"
        }
      ],
      "name": "setApprovalForAll",
      "outputs": [],
      "stateMutability": "nonpayable",
      "type": "function"
    },
    {
      "inputs": [
        {
          "internalType": "bytes4",
          "name": "interfaceId",
          "type": "bytes4"
        }
      ],
      "name": "supportsInterface",
      "outputs": [
        {
          "internalType": "bool",
          "name": "",
          "type": "bool"
        }
      ],
      "stateMutability": "view",
      "type": "function"
    },
    {
      "inputs": [
        {
          "internalType": "string",
          "name": "svg",
          "type": "string"
        }
      ],
      "name": "svgToImageURI",
      "outputs": [
        {
          "internalType": "string",
          "name": "",
          "type": "string"
        }
      ],
      "stateMutability": "pure",
      "type": "function"
    },
    {
      "inputs": [],
      "name": "symbol",
      "outputs": [
        {
          "internalType": "string",
          "name": "",
          "type": "string"
        }
      ],
      "stateMutability": "view",
      "type": "function"
    },
    {
      "inputs": [
        {
          "internalType": "uint256",
          "name": "tokenId",
          "type": "uint256"
        }
      ],
      "name": "tokenURI",
      "outputs": [
        {
          "internalType": "string",
          "name": "",
          "type": "string"
        }
      ],
      "stateMutability": "view",
      "type": "function"
    },
    {
      "inputs": [
        {
          "internalType": "address",
          "name": "from",
          "type": "address"
        },
        {
          "internalType": "address",
          "name": "to",
          "type": "address"
        },
        {
          "internalType": "uint256",
          "name": "tokenId",
          "type": "uint256"
        }
      ],
      "name": "transferFrom",
      "outputs": [],
      "stateMutability": "nonpayable",
      "type": "function"
    },
    {
      "inputs": [
        {
          "internalType": "address",
          "name": "newOwner",
          "type": "address"
        }
      ],
      "name": "transferOwnership",
      "outputs": [],
      "stateMutability": "nonpayable",
      "type": "function"
    }
  ],
  "transactionHash": "0xa620f2525c573d51a39dbe3bfe10c4b76ec4d0d2f810a98f6b049aa761e9983f",
  "args": [
    "0x694AA1769357215DE4FAC081bf1f309aDC325306",
    "<?xml version=\"1.0\" standalone=\"no\"?>\r\n<svg width=\"1024px\" height=\"1024px\" viewBox=\"0 0 1024 1024\" xmlns=\"http://www.w3.org/2000/svg\">\r\n  <path fill=\"#333\" d=\"M512 64C264.6 64 64 264.6 64 512s200.6 448 448 448 448-200.6 448-448S759.4 64 512 64zm0 820c-205.4 0-372-166.6-372-372s166.6-372 372-372 372 166.6 372 372-166.6 372-372 372z\"/>\r\n  <path fill=\"#E6E6E6\" d=\"M512 140c-205.4 0-372 166.6-372 372s166.6 372 372 372 372-166.6 372-372-166.6-372-372-372zM288 421a48.01 48.01 0 0 1 96 0 48.01 48.01 0 0 1-96 0zm376 272h-48.1c-4.2 0-7.8-3.2-8.1-7.4C604 636.1 562.5 597 512 597s-92.1 39.1-95.8 88.6c-.3 4.2-3.9 7.4-8.1 7.4H360a8 8 0 0 1-8-8.4c4.4-84.3 74.5-151.6 160-151.6s155.6 67.3 160 151.6a8 8 0 0 1-8 8.4zm24-224a48.01 48.01 0 0 1 0-96 48.01 48.01 0 0 1 0 96z\"/>\r\n  <path fill=\"#333\" d=\"M288 421a48 48 0 1 0 96 0 48 48 0 1 0-96 0zm224 112c-85.5 0-155.6 67.3-160 151.6a8 8 0 0 0 8 8.4h48.1c4.2 0 7.8-3.2 8.1-7.4 3.7-49.5 45.3-88.6 95.8-88.6s92 39.1 95.8 88.6c.3 4.2 3.9 7.4 8.1 7.4H664a8 8 0 0 0 8-8.4C667.6 600.3 597.5 533 512 533zm128-112a48 48 0 1 0 96 0 48 48 0 1 0-96 0z\"/>\r\n</svg>",
    "<svg viewBox=\"0 0 200 200\" width=\"400\"  height=\"400\" xmlns=\"http://www.w3.org/2000/svg\">\r\n  <circle cx=\"100\" cy=\"100\" fill=\"yellow\" r=\"78\" stroke=\"black\" stroke-width=\"3\"/>\r\n  <g class=\"eyes\">\r\n    <circle cx=\"61\" cy=\"82\" r=\"12\"/>\r\n    <circle cx=\"127\" cy=\"82\" r=\"12\"/>\r\n  </g>\r\n  <path d=\"m136.81 116.53c.69 26.17-64.11 42-81.52-.73\" style=\"fill:none; stroke: black; stroke-width: 3;\"/>\r\n</svg>"
  ],
  "numDeployments": 3,
  "solcInputHash": "d5c272f666aff00b07b66ec92db56334",
  "bytecode": "0x60a060405234801561001057600080fd5b50604051613e7c380380613e7c8339818101604052810190610032919061060e565b6040518060400160405280600f81526020017f44796e616d696320535647204e465400000000000000000000000000000000008152506040518060400160405280600381526020017f44534e000000000000000000000000000000000000000000000000000000000081525081600090816100ad91906108ba565b5080600190816100bd91906108ba565b5050506100dc6100d161015c60201b60201c565b61016460201b60201c565b60006007819055508273ffffffffffffffffffffffffffffffffffffffff1660808173ffffffffffffffffffffffffffffffffffffffff16815250506101278261022a60201b60201c565b6008908161013591906108ba565b506101458161022a60201b60201c565b6009908161015391906108ba565b50505050610b08565b600033905090565b6000600660009054906101000a900473ffffffffffffffffffffffffffffffffffffffff16905081600660006101000a81548173ffffffffffffffffffffffffffffffffffffffff021916908373ffffffffffffffffffffffffffffffffffffffff1602179055508173ffffffffffffffffffffffffffffffffffffffff168173ffffffffffffffffffffffffffffffffffffffff167f8be0079c531659141344cd1fd0a4f28419497f9722a3daafe3b4186f6b6457e060405160405180910390a35050565b606060006040518060400160405280601a81526020017f646174613a696d6167652f7376672b786d6c3b6261736536342c000000000000815250905060006102968460405160200161027c91906109c8565b6040516020818303038152906040526102c360201b60201c565b905081816040516020016102ab9291906109df565b60405160208183030381529060405292505050919050565b606060008251036102e557604051806020016040528060008152509050610436565b6000604051806060016040528060408152602001613e3c60409139905060006003600285516103149190610a32565b61031e9190610a95565b600461032a9190610ac6565b9050600060208261033b9190610a32565b67ffffffffffffffff811115610354576103536104c8565b5b6040519080825280601f01601f1916602001820160405280156103865781602001600182028036833780820191505090505b509050818152600183018586518101602084015b818310156103f5576003830192508251603f8160121c168501518253600182019150603f81600c1c168501518253600182019150603f8160061c168501518253600182019150603f811685015182536001820191505061039a565b60038951066001811461040f576002811461041f5761042a565b613d3d60f01b600283035261042a565b603d60f81b60018303525b50505050508093505050505b919050565b6000604051905090565b600080fd5b600080fd5b600073ffffffffffffffffffffffffffffffffffffffff82169050919050565b600061047a8261044f565b9050919050565b61048a8161046f565b811461049557600080fd5b50565b6000815190506104a781610481565b92915050565b600080fd5b600080fd5b6000601f19601f8301169050919050565b7f4e487b7100000000000000000000000000000000000000000000000000000000600052604160045260246000fd5b610500826104b7565b810181811067ffffffffffffffff8211171561051f5761051e6104c8565b5b80604052505050565b600061053261043b565b905061053e82826104f7565b919050565b600067ffffffffffffffff82111561055e5761055d6104c8565b5b610567826104b7565b9050602081019050919050565b60005b83811015610592578082015181840152602081019050610577565b60008484015250505050565b60006105b16105ac84610543565b610528565b9050828152602081018484840111156105cd576105cc6104b2565b5b6105d8848285610574565b509392505050565b600082601f8301126105f5576105f46104ad565b5b815161060584826020860161059e565b91505092915050565b60008060006060848603121561062757610626610445565b5b600061063586828701610498565b935050602084015167ffffffffffffffff8111156106565761065561044a565b5b610662868287016105e0565b925050604084015167ffffffffffffffff8111156106835761068261044a565b5b61068f868287016105e0565b9150509250925092565b600081519050919050565b7f4e487b7100000000000000000000000000000000000000000000000000000000600052602260045260246000fd5b600060028204905060018216806106eb57607f821691505b6020821081036106fe576106fd6106a4565b5b50919050565b60008190508160005260206000209050919050565b60006020601f8301049050919050565b600082821b905092915050565b6000600883026107667fffffffffffffffffffffffffffffffffffffffffffffffffffffffffffffffff82610729565b6107708683610729565b95508019841693508086168417925050509392505050565b6000819050919050565b6000819050919050565b60006107b76107b26107ad84610788565b610792565b610788565b9050919050565b6000819050919050565b6107d18361079c565b6107e56107dd826107be565b848454610736565b825550505050565b600090565b6107fa6107ed565b6108058184846107c8565b505050565b5b818110156108295761081e6000826107f2565b60018101905061080b565b5050565b601f82111561086e5761083f81610704565b61084884610719565b81016020851015610857578190505b61086b61086385610719565b83018261080a565b50505b505050565b600082821c905092915050565b600061089160001984600802610873565b1980831691505092915050565b60006108aa8383610880565b9150826002028217905092915050565b6108c382610699565b67ffffffffffffffff8111156108dc576108db6104c8565b5b6108e682546106d3565b6108f182828561082d565b600060209050601f8311600181146109245760008415610912578287015190505b61091c858261089e565b865550610984565b601f19841661093286610704565b60005b8281101561095a57848901518255600182019150602085019450602081019050610935565b868310156109775784890151610973601f891682610880565b8355505b6001600288020188555050505b505050505050565b600081905092915050565b60006109a282610699565b6109ac818561098c565b93506109bc818560208601610574565b80840191505092915050565b60006109d48284610997565b915081905092915050565b60006109eb8285610997565b91506109f78284610997565b91508190509392505050565b7f4e487b7100000000000000000000000000000000000000000000000000000000600052601160045260246000fd5b6000610a3d82610788565b9150610a4883610788565b9250828201905080821115610a6057610a5f610a03565b5b92915050565b7f4e487b7100000000000000000000000000000000000000000000000000000000600052601260045260246000fd5b6000610aa082610788565b9150610aab83610788565b925082610abb57610aba610a66565b5b828204905092915050565b6000610ad182610788565b9150610adc83610788565b9250828202610aea81610788565b91508282048414831517610b0157610b00610a03565b5b5092915050565b608051613312610b2a60003960008181610b420152610c2301526133126000f3fe608060405234801561001057600080fd5b50600436106101425760003560e01c8063715018a6116100b8578063a22cb4651161007c578063a22cb46514610365578063b88d4fde14610381578063c87b56dd1461039d578063e985e9c5146103cd578063ed28a122146103fd578063f2fde38b1461041b57610142565b8063715018a6146102e357806376f6056b146102ed5780638da5cb5b1461030b57806395d89b41146103295780639e87a5cd1461034757610142565b806323b872dd1161010a57806323b872dd146101fd57806330d871c61461021957806342842e0e146102495780636352211e146102655780636e02007d1461029557806370a08231146102b357610142565b806301ffc9a71461014757806306fdde0314610177578063081812fc14610195578063095ea7b3146101c55780631e930812146101e1575b600080fd5b610161600480360381019061015c9190611ef3565b610437565b60405161016e9190611f3b565b60405180910390f35b61017f610519565b60405161018c9190611fe6565b60405180910390f35b6101af60048036038101906101aa919061203e565b6105ab565b6040516101bc91906120ac565b60405180910390f35b6101df60048036038101906101da91906120f3565b6105f1565b005b6101fb60048036038101906101f69190612169565b610708565b005b61021760048036038101906102129190612196565b610782565b005b610233600480360381019061022e919061231e565b6107e2565b6040516102409190611fe6565b60405180910390f35b610263600480360381019061025e9190612196565b610875565b005b61027f600480360381019061027a919061203e565b610895565b60405161028c91906120ac565b60405180910390f35b61029d61091b565b6040516102aa9190612376565b60405180910390f35b6102cd60048036038101906102c89190612391565b610925565b6040516102da9190612376565b60405180910390f35b6102eb6109dc565b005b6102f56109f0565b6040516103029190611fe6565b60405180910390f35b610313610a82565b60405161032091906120ac565b60405180910390f35b610331610aac565b60405161033e9190611fe6565b60405180910390f35b61034f610b3e565b60405161035c919061241d565b60405180910390f35b61037f600480360381019061037a9190612464565b610b66565b005b61039b60048036038101906103969190612545565b610b7c565b005b6103b760048036038101906103b2919061203e565b610bde565b6040516103c49190611fe6565b60405180910390f35b6103e760048036038101906103e291906125c8565b610e4f565b6040516103f49190611f3b565b60405180910390f35b610405610ee3565b6040516104129190611fe6565b60405180910390f35b61043560048036038101906104309190612391565b610f75565b005b60007f80ac58cd000000000000000000000000000000000000000000000000000000007bffffffffffffffffffffffffffffffffffffffffffffffffffffffff1916827bffffffffffffffffffffffffffffffffffffffffffffffffffffffff1916148061050257507f5b5e139f000000000000000000000000000000000000000000000000000000007bffffffffffffffffffffffffffffffffffffffffffffffffffffffff1916827bffffffffffffffffffffffffffffffffffffffffffffffffffffffff1916145b80610512575061051182610ff8565b5b9050919050565b60606000805461052890612637565b80601f016020809104026020016040519081016040528092919081815260200182805461055490612637565b80156105a15780601f10610576576101008083540402835291602001916105a1565b820191906000526020600020905b81548152906001019060200180831161058457829003601f168201915b5050505050905090565b60006105b682611062565b6004600083815260200190815260200160002060009054906101000a900473ffffffffffffffffffffffffffffffffffffffff169050919050565b60006105fc82610895565b90508073ffffffffffffffffffffffffffffffffffffffff168373ffffffffffffffffffffffffffffffffffffffff160361066c576040517f08c379a0000000000000000000000000000000000000000000000000000000008152600401610663906126da565b60405180910390fd5b8073ffffffffffffffffffffffffffffffffffffffff1661068b6110ad565b73ffffffffffffffffffffffffffffffffffffffff1614806106ba57506106b9816106b46110ad565b610e4f565b5b6106f9576040517f08c379a00000000000000000000000000000000000000000000000000000000081526004016106f09061276c565b60405180910390fd5b61070383836110b5565b505050565b6000600754905081600a600083815260200190815260200160002081905550610731338261116e565b600160075461074091906127bb565b600781905550807f882d3b5a729a8bb95cf6c0083c99b42ecd9637123d4425bd7b768877fd8af8b08360405161077691906127fe565b60405180910390a25050565b61079361078d6110ad565b8261118c565b6107d2576040517f08c379a00000000000000000000000000000000000000000000000000000000081526004016107c99061288b565b60405180910390fd5b6107dd838383611221565b505050565b606060006040518060400160405280601a81526020017f646174613a696d6167652f7376672b786d6c3b6261736536342c000000000000815250905060006108488460405160200161083491906128e7565b60405160208183030381529060405261151a565b9050818160405160200161085d9291906128fe565b60405160208183030381529060405292505050919050565b61089083838360405180602001604052806000815250610b7c565b505050565b6000806108a183611692565b9050600073ffffffffffffffffffffffffffffffffffffffff168173ffffffffffffffffffffffffffffffffffffffff1603610912576040517f08c379a00000000000000000000000000000000000000000000000000000000081526004016109099061296e565b60405180910390fd5b80915050919050565b6000600754905090565b60008073ffffffffffffffffffffffffffffffffffffffff168273ffffffffffffffffffffffffffffffffffffffff1603610995576040517f08c379a000000000000000000000000000000000000000000000000000000000815260040161098c90612a00565b60405180910390fd5b600360008373ffffffffffffffffffffffffffffffffffffffff1673ffffffffffffffffffffffffffffffffffffffff168152602001908152602001600020549050919050565b6109e46116cf565b6109ee600061174d565b565b6060600980546109ff90612637565b80601f0160208091040260200160405190810160405280929190818152602001828054610a2b90612637565b8015610a785780601f10610a4d57610100808354040283529160200191610a78565b820191906000526020600020905b815481529060010190602001808311610a5b57829003601f168201915b5050505050905090565b6000600660009054906101000a900473ffffffffffffffffffffffffffffffffffffffff16905090565b606060018054610abb90612637565b80601f0160208091040260200160405190810160405280929190818152602001828054610ae790612637565b8015610b345780601f10610b0957610100808354040283529160200191610b34565b820191906000526020600020905b815481529060010190602001808311610b1757829003601f168201915b5050505050905090565b60007f0000000000000000000000000000000000000000000000000000000000000000905090565b610b78610b716110ad565b8383611813565b5050565b610b8d610b876110ad565b8361118c565b610bcc576040517f08c379a0000000000000000000000000000000000000000000000000000000008152600401610bc39061288b565b60405180910390fd5b610bd88484848461197f565b50505050565b6060610be9826119db565b610c1f576040517f6df5edae00000000000000000000000000000000000000000000000000000000815260040160405180910390fd5b60007f000000000000000000000000000000000000000000000000000000000000000073ffffffffffffffffffffffffffffffffffffffff1663feaf968c6040518163ffffffff1660e01b815260040160a060405180830381865afa158015610c8c573d6000803e3d6000fd5b505050506040513d601f19601f82011682018060405250810190610cb09190612a8c565b505050915050600060088054610cc590612637565b80601f0160208091040260200160405190810160405280929190818152602001828054610cf190612637565b8015610d3e5780601f10610d1357610100808354040283529160200191610d3e565b820191906000526020600020905b815481529060010190602001808311610d2157829003601f168201915b50505050509050600a6000858152602001908152602001600020548212610ded5760098054610d6c90612637565b80601f0160208091040260200160405190810160405280929190818152602001828054610d9890612637565b8015610de55780601f10610dba57610100808354040283529160200191610de5565b820191906000526020600020905b815481529060010190602001808311610dc857829003601f168201915b505050505090505b610df5611a1c565b610e26610e00610519565b83604051602001610e12929190612ccf565b60405160208183030381529060405261151a565b604051602001610e379291906128fe565b60405160208183030381529060405292505050919050565b6000600560008473ffffffffffffffffffffffffffffffffffffffff1673ffffffffffffffffffffffffffffffffffffffff16815260200190815260200160002060008373ffffffffffffffffffffffffffffffffffffffff1673ffffffffffffffffffffffffffffffffffffffff16815260200190815260200160002060009054906101000a900460ff16905092915050565b606060088054610ef290612637565b80601f0160208091040260200160405190810160405280929190818152602001828054610f1e90612637565b8015610f6b5780601f10610f4057610100808354040283529160200191610f6b565b820191906000526020600020905b815481529060010190602001808311610f4e57829003601f168201915b5050505050905090565b610f7d6116cf565b600073ffffffffffffffffffffffffffffffffffffffff168173ffffffffffffffffffffffffffffffffffffffff1603610fec576040517f08c379a0000000000000000000000000000000000000000000000000000000008152600401610fe390612d91565b60405180910390fd5b610ff58161174d565b50565b60007f01ffc9a7000000000000000000000000000000000000000000000000000000007bffffffffffffffffffffffffffffffffffffffffffffffffffffffff1916827bffffffffffffffffffffffffffffffffffffffffffffffffffffffff1916149050919050565b61106b816119db565b6110aa576040517f08c379a00000000000000000000000000000000000000000000000000000000081526004016110a19061296e565b60405180910390fd5b50565b600033905090565b816004600083815260200190815260200160002060006101000a81548173ffffffffffffffffffffffffffffffffffffffff021916908373ffffffffffffffffffffffffffffffffffffffff160217905550808273ffffffffffffffffffffffffffffffffffffffff1661112883610895565b73ffffffffffffffffffffffffffffffffffffffff167f8c5be1e5ebec7d5bd14f71427d1e84f3dd0314c0f7b2291e5b200ac8c7c3b92560405160405180910390a45050565b611188828260405180602001604052806000815250611a59565b5050565b60008061119883610895565b90508073ffffffffffffffffffffffffffffffffffffffff168473ffffffffffffffffffffffffffffffffffffffff1614806111da57506111d98185610e4f565b5b8061121857508373ffffffffffffffffffffffffffffffffffffffff16611200846105ab565b73ffffffffffffffffffffffffffffffffffffffff16145b91505092915050565b8273ffffffffffffffffffffffffffffffffffffffff1661124182610895565b73ffffffffffffffffffffffffffffffffffffffff1614611297576040517f08c379a000000000000000000000000000000000000000000000000000000000815260040161128e90612e23565b60405180910390fd5b600073ffffffffffffffffffffffffffffffffffffffff168273ffffffffffffffffffffffffffffffffffffffff1603611306576040517f08c379a00000000000000000000000000000000000000000000000000000000081526004016112fd90612eb5565b60405180910390fd5b6113138383836001611ab4565b8273ffffffffffffffffffffffffffffffffffffffff1661133382610895565b73ffffffffffffffffffffffffffffffffffffffff1614611389576040517f08c379a000000000000000000000000000000000000000000000000000000000815260040161138090612e23565b60405180910390fd5b6004600082815260200190815260200160002060006101000a81549073ffffffffffffffffffffffffffffffffffffffff02191690556001600360008573ffffffffffffffffffffffffffffffffffffffff1673ffffffffffffffffffffffffffffffffffffffff168152602001908152602001600020600082825403925050819055506001600360008473ffffffffffffffffffffffffffffffffffffffff1673ffffffffffffffffffffffffffffffffffffffff16815260200190815260200160002060008282540192505081905550816002600083815260200190815260200160002060006101000a81548173ffffffffffffffffffffffffffffffffffffffff021916908373ffffffffffffffffffffffffffffffffffffffff160217905550808273ffffffffffffffffffffffffffffffffffffffff168473ffffffffffffffffffffffffffffffffffffffff167fddf252ad1be2c89b69c2b068fc378daa952ba7f163c4a11628f55a4df523b3ef60405160405180910390a46115158383836001611aba565b505050565b6060600082510361153c5760405180602001604052806000815250905061168d565b600060405180606001604052806040815260200161329d604091399050600060036002855161156b91906127bb565b6115759190612f04565b60046115819190612f35565b9050600060208261159291906127bb565b67ffffffffffffffff8111156115ab576115aa6121f3565b5b6040519080825280601f01601f1916602001820160405280156115dd5781602001600182028036833780820191505090505b509050818152600183018586518101602084015b8183101561164c576003830192508251603f8160121c168501518253600182019150603f81600c1c168501518253600182019150603f8160061c168501518253600182019150603f81168501518253600182019150506115f1565b600389510660018114611666576002811461167657611681565b613d3d60f01b6002830352611681565b603d60f81b60018303525b50505050508093505050505b919050565b60006002600083815260200190815260200160002060009054906101000a900473ffffffffffffffffffffffffffffffffffffffff169050919050565b6116d76110ad565b73ffffffffffffffffffffffffffffffffffffffff166116f5610a82565b73ffffffffffffffffffffffffffffffffffffffff161461174b576040517f08c379a000000000000000000000000000000000000000000000000000000000815260040161174290612fc3565b60405180910390fd5b565b6000600660009054906101000a900473ffffffffffffffffffffffffffffffffffffffff16905081600660006101000a81548173ffffffffffffffffffffffffffffffffffffffff021916908373ffffffffffffffffffffffffffffffffffffffff1602179055508173ffffffffffffffffffffffffffffffffffffffff168173ffffffffffffffffffffffffffffffffffffffff167f8be0079c531659141344cd1fd0a4f28419497f9722a3daafe3b4186f6b6457e060405160405180910390a35050565b8173ffffffffffffffffffffffffffffffffffffffff168373ffffffffffffffffffffffffffffffffffffffff1603611881576040517f08c379a00000000000000000000000000000000000000000000000000000000081526004016118789061302f565b60405180910390fd5b80600560008573ffffffffffffffffffffffffffffffffffffffff1673ffffffffffffffffffffffffffffffffffffffff16815260200190815260200160002060008473ffffffffffffffffffffffffffffffffffffffff1673ffffffffffffffffffffffffffffffffffffffff16815260200190815260200160002060006101000a81548160ff0219169083151502179055508173ffffffffffffffffffffffffffffffffffffffff168373ffffffffffffffffffffffffffffffffffffffff167f17307eab39ab6107e8899845ad3d59bd9653f200f220920489ca2b5937696c31836040516119729190611f3b565b60405180910390a3505050565b61198a848484611221565b61199684848484611ac0565b6119d5576040517f08c379a00000000000000000000000000000000000000000000000000000000081526004016119cc906130c1565b60405180910390fd5b50505050565b60008073ffffffffffffffffffffffffffffffffffffffff166119fd83611692565b73ffffffffffffffffffffffffffffffffffffffff1614159050919050565b60606040518060400160405280601d81526020017f646174613a6170706c69636174696f6e2f6a736f6e3b6261736536342c000000815250905090565b611a638383611c47565b611a706000848484611ac0565b611aaf576040517f08c379a0000000000000000000000000000000000000000000000000000000008152600401611aa6906130c1565b60405180910390fd5b505050565b50505050565b50505050565b6000611ae18473ffffffffffffffffffffffffffffffffffffffff16611e64565b15611c3a578373ffffffffffffffffffffffffffffffffffffffff1663150b7a02611b0a6110ad565b8786866040518563ffffffff1660e01b8152600401611b2c9493929190613136565b6020604051808303816000875af1925050508015611b6857506040513d601f19601f82011682018060405250810190611b659190613197565b60015b611bea573d8060008114611b98576040519150601f19603f3d011682016040523d82523d6000602084013e611b9d565b606091505b506000815103611be2576040517f08c379a0000000000000000000000000000000000000000000000000000000008152600401611bd9906130c1565b60405180910390fd5b805181602001fd5b63150b7a0260e01b7bffffffffffffffffffffffffffffffffffffffffffffffffffffffff1916817bffffffffffffffffffffffffffffffffffffffffffffffffffffffff191614915050611c3f565b600190505b949350505050565b600073ffffffffffffffffffffffffffffffffffffffff168273ffffffffffffffffffffffffffffffffffffffff1603611cb6576040517f08c379a0000000000000000000000000000000000000000000000000000000008152600401611cad90613210565b60405180910390fd5b611cbf816119db565b15611cff576040517f08c379a0000000000000000000000000000000000000000000000000000000008152600401611cf69061327c565b60405180910390fd5b611d0d600083836001611ab4565b611d16816119db565b15611d56576040517f08c379a0000000000000000000000000000000000000000000000000000000008152600401611d4d9061327c565b60405180910390fd5b6001600360008473ffffffffffffffffffffffffffffffffffffffff1673ffffffffffffffffffffffffffffffffffffffff16815260200190815260200160002060008282540192505081905550816002600083815260200190815260200160002060006101000a81548173ffffffffffffffffffffffffffffffffffffffff021916908373ffffffffffffffffffffffffffffffffffffffff160217905550808273ffffffffffffffffffffffffffffffffffffffff16600073ffffffffffffffffffffffffffffffffffffffff167fddf252ad1be2c89b69c2b068fc378daa952ba7f163c4a11628f55a4df523b3ef60405160405180910390a4611e60600083836001611aba565b5050565b6000808273ffffffffffffffffffffffffffffffffffffffff163b119050919050565b6000604051905090565b600080fd5b600080fd5b60007fffffffff0000000000000000000000000000000000000000000000000000000082169050919050565b611ed081611e9b565b8114611edb57600080fd5b50565b600081359050611eed81611ec7565b92915050565b600060208284031215611f0957611f08611e91565b5b6000611f1784828501611ede565b91505092915050565b60008115159050919050565b611f3581611f20565b82525050565b6000602082019050611f506000830184611f2c565b92915050565b600081519050919050565b600082825260208201905092915050565b60005b83811015611f90578082015181840152602081019050611f75565b60008484015250505050565b6000601f19601f8301169050919050565b6000611fb882611f56565b611fc28185611f61565b9350611fd2818560208601611f72565b611fdb81611f9c565b840191505092915050565b600060208201905081810360008301526120008184611fad565b905092915050565b6000819050919050565b61201b81612008565b811461202657600080fd5b50565b60008135905061203881612012565b92915050565b60006020828403121561205457612053611e91565b5b600061206284828501612029565b91505092915050565b600073ffffffffffffffffffffffffffffffffffffffff82169050919050565b60006120968261206b565b9050919050565b6120a68161208b565b82525050565b60006020820190506120c1600083018461209d565b92915050565b6120d08161208b565b81146120db57600080fd5b50565b6000813590506120ed816120c7565b92915050565b6000806040838503121561210a57612109611e91565b5b6000612118858286016120de565b925050602061212985828601612029565b9150509250929050565b6000819050919050565b61214681612133565b811461215157600080fd5b50565b6000813590506121638161213d565b92915050565b60006020828403121561217f5761217e611e91565b5b600061218d84828501612154565b91505092915050565b6000806000606084860312156121af576121ae611e91565b5b60006121bd868287016120de565b93505060206121ce868287016120de565b92505060406121df86828701612029565b9150509250925092565b600080fd5b600080fd5b7f4e487b7100000000000000000000000000000000000000000000000000000000600052604160045260246000fd5b61222b82611f9c565b810181811067ffffffffffffffff8211171561224a576122496121f3565b5b80604052505050565b600061225d611e87565b90506122698282612222565b919050565b600067ffffffffffffffff821115612289576122886121f3565b5b61229282611f9c565b9050602081019050919050565b82818337600083830152505050565b60006122c16122bc8461226e565b612253565b9050828152602081018484840111156122dd576122dc6121ee565b5b6122e884828561229f565b509392505050565b600082601f830112612305576123046121e9565b5b81356123158482602086016122ae565b91505092915050565b60006020828403121561233457612333611e91565b5b600082013567ffffffffffffffff81111561235257612351611e96565b5b61235e848285016122f0565b91505092915050565b61237081612008565b82525050565b600060208201905061238b6000830184612367565b92915050565b6000602082840312156123a7576123a6611e91565b5b60006123b5848285016120de565b91505092915050565b6000819050919050565b60006123e36123de6123d98461206b565b6123be565b61206b565b9050919050565b60006123f5826123c8565b9050919050565b6000612407826123ea565b9050919050565b612417816123fc565b82525050565b6000602082019050612432600083018461240e565b92915050565b61244181611f20565b811461244c57600080fd5b50565b60008135905061245e81612438565b92915050565b6000806040838503121561247b5761247a611e91565b5b6000612489858286016120de565b925050602061249a8582860161244f565b9150509250929050565b600067ffffffffffffffff8211156124bf576124be6121f3565b5b6124c882611f9c565b9050602081019050919050565b60006124e86124e3846124a4565b612253565b905082815260208101848484011115612504576125036121ee565b5b61250f84828561229f565b509392505050565b600082601f83011261252c5761252b6121e9565b5b813561253c8482602086016124d5565b91505092915050565b6000806000806080858703121561255f5761255e611e91565b5b600061256d878288016120de565b945050602061257e878288016120de565b935050604061258f87828801612029565b925050606085013567ffffffffffffffff8111156125b0576125af611e96565b5b6125bc87828801612517565b91505092959194509250565b600080604083850312156125df576125de611e91565b5b60006125ed858286016120de565b92505060206125fe858286016120de565b9150509250929050565b7f4e487b7100000000000000000000000000000000000000000000000000000000600052602260045260246000fd5b6000600282049050600182168061264f57607f821691505b60208210810361266257612661612608565b5b50919050565b7f4552433732313a20617070726f76616c20746f2063757272656e74206f776e6560008201527f7200000000000000000000000000000000000000000000000000000000000000602082015250565b60006126c4602183611f61565b91506126cf82612668565b604082019050919050565b600060208201905081810360008301526126f3816126b7565b9050919050565b7f4552433732313a20617070726f76652063616c6c6572206973206e6f7420746f60008201527f6b656e206f776e6572206f7220617070726f76656420666f7220616c6c000000602082015250565b6000612756603d83611f61565b9150612761826126fa565b604082019050919050565b6000602082019050818103600083015261278581612749565b9050919050565b7f4e487b7100000000000000000000000000000000000000000000000000000000600052601160045260246000fd5b60006127c682612008565b91506127d183612008565b92508282019050808211156127e9576127e861278c565b5b92915050565b6127f881612133565b82525050565b600060208201905061281360008301846127ef565b92915050565b7f4552433732313a2063616c6c6572206973206e6f7420746f6b656e206f776e6560008201527f72206f7220617070726f76656400000000000000000000000000000000000000602082015250565b6000612875602d83611f61565b915061288082612819565b604082019050919050565b600060208201905081810360008301526128a481612868565b9050919050565b600081905092915050565b60006128c182611f56565b6128cb81856128ab565b93506128db818560208601611f72565b80840191505092915050565b60006128f382846128b6565b915081905092915050565b600061290a82856128b6565b915061291682846128b6565b91508190509392505050565b7f4552433732313a20696e76616c696420746f6b656e2049440000000000000000600082015250565b6000612958601883611f61565b915061296382612922565b602082019050919050565b600060208201905081810360008301526129878161294b565b9050919050565b7f4552433732313a2061646472657373207a65726f206973206e6f74206120766160008201527f6c6964206f776e65720000000000000000000000000000000000000000000000602082015250565b60006129ea602983611f61565b91506129f58261298e565b604082019050919050565b60006020820190508181036000830152612a19816129dd565b9050919050565b600069ffffffffffffffffffff82169050919050565b612a3f81612a20565b8114612a4a57600080fd5b50565b600081519050612a5c81612a36565b92915050565b600081519050612a718161213d565b92915050565b600081519050612a8681612012565b92915050565b600080600080600060a08688031215612aa857612aa7611e91565b5b6000612ab688828901612a4d565b9550506020612ac788828901612a62565b9450506040612ad888828901612a77565b9350506060612ae988828901612a77565b9250506080612afa88828901612a4d565b9150509295509295909350565b7f7b226e616d65223a220000000000000000000000000000000000000000000000600082015250565b6000612b3d6009836128ab565b9150612b4882612b07565b600982019050919050565b7f222c20226465736372697074696f6e223a22416e204e4654207468617420636860008201527f616e676573206261736564206f6e2074686520436861696e6c696e6b2046656560208201527f64222c2000000000000000000000000000000000000000000000000000000000604082015250565b6000612bd56044836128ab565b9150612be082612b53565b604482019050919050565b7f2261747472696275746573223a205b7b2274726169745f74797065223a20226360008201527f6f6f6c6e657373222c202276616c7565223a203130307d5d2c2022696d61676560208201527f223a220000000000000000000000000000000000000000000000000000000000604082015250565b6000612c6d6043836128ab565b9150612c7882612beb565b604382019050919050565b7f227d000000000000000000000000000000000000000000000000000000000000600082015250565b6000612cb96002836128ab565b9150612cc482612c83565b600282019050919050565b6000612cda82612b30565b9150612ce682856128b6565b9150612cf182612bc8565b9150612cfc82612c60565b9150612d0882846128b6565b9150612d1382612cac565b91508190509392505050565b7f4f776e61626c653a206e6577206f776e657220697320746865207a65726f206160008201527f6464726573730000000000000000000000000000000000000000000000000000602082015250565b6000612d7b602683611f61565b9150612d8682612d1f565b604082019050919050565b60006020820190508181036000830152612daa81612d6e565b9050919050565b7f4552433732313a207472616e736665722066726f6d20696e636f72726563742060008201527f6f776e6572000000000000000000000000000000000000000000000000000000602082015250565b6000612e0d602583611f61565b9150612e1882612db1565b604082019050919050565b60006020820190508181036000830152612e3c81612e00565b9050919050565b7f4552433732313a207472616e7366657220746f20746865207a65726f2061646460008201527f7265737300000000000000000000000000000000000000000000000000000000602082015250565b6000612e9f602483611f61565b9150612eaa82612e43565b604082019050919050565b60006020820190508181036000830152612ece81612e92565b9050919050565b7f4e487b7100000000000000000000000000000000000000000000000000000000600052601260045260246000fd5b6000612f0f82612008565b9150612f1a83612008565b925082612f2a57612f29612ed5565b5b828204905092915050565b6000612f4082612008565b9150612f4b83612008565b9250828202612f5981612008565b91508282048414831517612f7057612f6f61278c565b5b5092915050565b7f4f776e61626c653a2063616c6c6572206973206e6f7420746865206f776e6572600082015250565b6000612fad602083611f61565b9150612fb882612f77565b602082019050919050565b60006020820190508181036000830152612fdc81612fa0565b9050919050565b7f4552433732313a20617070726f766520746f2063616c6c657200000000000000600082015250565b6000613019601983611f61565b915061302482612fe3565b602082019050919050565b600060208201905081810360008301526130488161300c565b9050919050565b7f4552433732313a207472616e7366657220746f206e6f6e20455243373231526560008201527f63656976657220696d706c656d656e7465720000000000000000000000000000602082015250565b60006130ab603283611f61565b91506130b68261304f565b604082019050919050565b600060208201905081810360008301526130da8161309e565b9050919050565b600081519050919050565b600082825260208201905092915050565b6000613108826130e1565b61311281856130ec565b9350613122818560208601611f72565b61312b81611f9c565b840191505092915050565b600060808201905061314b600083018761209d565b613158602083018661209d565b6131656040830185612367565b818103606083015261317781846130fd565b905095945050505050565b60008151905061319181611ec7565b92915050565b6000602082840312156131ad576131ac611e91565b5b60006131bb84828501613182565b91505092915050565b7f4552433732313a206d696e7420746f20746865207a65726f2061646472657373600082015250565b60006131fa602083611f61565b9150613205826131c4565b602082019050919050565b60006020820190508181036000830152613229816131ed565b9050919050565b7f4552433732313a20746f6b656e20616c7265616479206d696e74656400000000600082015250565b6000613266601c83611f61565b915061327182613230565b602082019050919050565b6000602082019050818103600083015261329581613259565b905091905056fe4142434445464748494a4b4c4d4e4f505152535455565758595a6162636465666768696a6b6c6d6e6f707172737475767778797a303132333435363738392b2fa2646970667358221220598cc3f475d3a7052bcf5bd9f7454ecc08f4e54cb5414a55e8f8cf1fb4bc38bd64736f6c634300081c00334142434445464748494a4b4c4d4e4f505152535455565758595a6162636465666768696a6b6c6d6e6f707172737475767778797a303132333435363738392b2f",
  "devdoc": {
    "events": {
      "Approval(address,address,uint256)": {
        "details": "Emitted when `owner` enables `approved` to manage the `tokenId` token."
      },
      "ApprovalForAll(address,address,bool)": {
        "details": "Emitted when `owner` enables or disables (`approved`) `operator` to manage all of its assets."
      },
      "Transfer(address,address,uint256)": {
        "details": "Emitted when `tokenId` token is transferred from `from` to `to`."
      }
    },
    "kind": "dev",
    "methods": {
      "approve(address,uint256)": {
        "details": "See {IERC721-approve}."
      },
      "balanceOf(address)": {
        "details": "See {IERC721-balanceOf}."
      },
      "getApproved(uint256)": {
        "details": "See {IERC721-getApproved}."
      },
      "isApprovedForAll(address,address)": {
        "details": "See {IERC721-isApprovedForAll}."
      },
      "name()": {
        "details": "See {IERC721Metadata-name}."
      },
      "owner()": {
        "details": "Returns the address of the current owner."
      },
      "ownerOf(uint256)": {
        "details": "See {IERC721-ownerOf}."
      },
      "renounceOwnership()": {
        "details": "Leaves the contract without owner. It will not be possible to call `onlyOwner` functions. Can only be called by the current owner. NOTE: Renouncing ownership will leave the contract without an owner, thereby disabling any functionality that is only available to the owner."
      },
      "safeTransferFrom(address,address,uint256)": {
        "details": "See {IERC721-safeTransferFrom}."
      },
      "safeTransferFrom(address,address,uint256,bytes)": {
        "details": "See {IERC721-safeTransferFrom}."
      },
      "setApprovalForAll(address,bool)": {
        "details": "See {IERC721-setApprovalForAll}."
      },
      "supportsInterface(bytes4)": {
        "details": "See {IERC165-supportsInterface}."
      },
      "symbol()": {
        "details": "See {IERC721Metadata-symbol}."
      },
      "tokenURI(uint256)": {
        "details": "See {IERC721Metadata-tokenURI}."
      },
      "transferFrom(address,address,uint256)": {
        "details": "See {IERC721-transferFrom}."
      },
      "transferOwnership(address)": {
        "details": "Transfers ownership of the contract to a new account (`newOwner`). Can only be called by the current owner."
      }
    },
    "version": 1
  },
  "userdoc": {
    "kind": "user",
    "methods": {},
    "version": 1
  },
  "storageLayout": {
    "storage": [
      {
        "astId": 184,
        "contract": "contracts/DynamicSvgNft.sol:DynamicSvgNft",
        "label": "_name",
        "offset": 0,
        "slot": "0",
        "type": "t_string_storage"
      },
      {
        "astId": 186,
        "contract": "contracts/DynamicSvgNft.sol:DynamicSvgNft",
        "label": "_symbol",
        "offset": 0,
        "slot": "1",
        "type": "t_string_storage"
      },
      {
        "astId": 190,
        "contract": "contracts/DynamicSvgNft.sol:DynamicSvgNft",
        "label": "_owners",
        "offset": 0,
        "slot": "2",
        "type": "t_mapping(t_uint256,t_address)"
      },
      {
        "astId": 194,
        "contract": "contracts/DynamicSvgNft.sol:DynamicSvgNft",
        "label": "_balances",
        "offset": 0,
        "slot": "3",
        "type": "t_mapping(t_address,t_uint256)"
      },
      {
        "astId": 198,
        "contract": "contracts/DynamicSvgNft.sol:DynamicSvgNft",
        "label": "_tokenApprovals",
        "offset": 0,
        "slot": "4",
        "type": "t_mapping(t_uint256,t_address)"
      },
      {
        "astId": 204,
        "contract": "contracts/DynamicSvgNft.sol:DynamicSvgNft",
        "label": "_operatorApprovals",
        "offset": 0,
        "slot": "5",
        "type": "t_mapping(t_address,t_mapping(t_address,t_bool))"
      },
      {
        "astId": 53,
        "contract": "contracts/DynamicSvgNft.sol:DynamicSvgNft",
        "label": "_owner",
        "offset": 0,
        "slot": "6",
        "type": "t_address"
      },
      {
        "astId": 2972,
        "contract": "contracts/DynamicSvgNft.sol:DynamicSvgNft",
        "label": "s_tokenCounter",
        "offset": 0,
        "slot": "7",
        "type": "t_uint256"
      },
      {
        "astId": 2974,
        "contract": "contracts/DynamicSvgNft.sol:DynamicSvgNft",
        "label": "s_lowImageURI",
        "offset": 0,
        "slot": "8",
        "type": "t_string_storage"
      },
      {
        "astId": 2976,
        "contract": "contracts/DynamicSvgNft.sol:DynamicSvgNft",
        "label": "s_highImageURI",
        "offset": 0,
        "slot": "9",
        "type": "t_string_storage"
      },
      {
        "astId": 2980,
        "contract": "contracts/DynamicSvgNft.sol:DynamicSvgNft",
        "label": "s_tokenIdToHighValues",
        "offset": 0,
        "slot": "10",
        "type": "t_mapping(t_uint256,t_int256)"
      }
    ],
    "types": {
      "t_address": {
        "encoding": "inplace",
        "label": "address",
        "numberOfBytes": "20"
      },
      "t_bool": {
        "encoding": "inplace",
        "label": "bool",
        "numberOfBytes": "1"
      },
      "t_int256": {
        "encoding": "inplace",
        "label": "int256",
        "numberOfBytes": "32"
      },
      "t_mapping(t_address,t_bool)": {
        "encoding": "mapping",
        "key": "t_address",
        "label": "mapping(address => bool)",
        "numberOfBytes": "32",
        "value": "t_bool"
      },
      "t_mapping(t_address,t_mapping(t_address,t_bool))": {
        "encoding": "mapping",
        "key": "t_address",
        "label": "mapping(address => mapping(address => bool))",
        "numberOfBytes": "32",
        "value": "t_mapping(t_address,t_bool)"
      },
      "t_mapping(t_address,t_uint256)": {
        "encoding": "mapping",
        "key": "t_address",
        "label": "mapping(address => uint256)",
        "numberOfBytes": "32",
        "value": "t_uint256"
      },
      "t_mapping(t_uint256,t_address)": {
        "encoding": "mapping",
        "key": "t_uint256",
        "label": "mapping(uint256 => address)",
        "numberOfBytes": "32",
        "value": "t_address"
      },
      "t_mapping(t_uint256,t_int256)": {
        "encoding": "mapping",
        "key": "t_uint256",
        "label": "mapping(uint256 => int256)",
        "numberOfBytes": "32",
        "value": "t_int256"
      },
      "t_string_storage": {
        "encoding": "bytes",
        "label": "string",
        "numberOfBytes": "32"
      },
      "t_uint256": {
        "encoding": "inplace",
        "label": "uint256",
        "numberOfBytes": "32"
      }
    }
  }
}